{
  "_format": "hh-sol-artifact-1",
  "contractName": "Attendance",
  "sourceName": "contracts/Attendance.sol",
  "abi": [
    {
      "anonymous": false,
      "inputs": [
        {
          "indexed": false,
          "internalType": "string",
          "name": "name",
          "type": "string"
        },
        {
          "indexed": false,
          "internalType": "string",
          "name": "time",
          "type": "string"
        }
      ],
      "name": "AttendanceMarked",
      "type": "event"
    },
    {
      "inputs": [
        {
          "internalType": "uint256",
          "name": "",
          "type": "uint256"
        }
      ],
      "name": "attendanceRecords",
      "outputs": [
        {
          "internalType": "string",
          "name": "name",
          "type": "string"
        },
        {
          "internalType": "string",
          "name": "time",
          "type": "string"
        }
      ],
      "stateMutability": "view",
      "type": "function"
    },
    {
      "inputs": [],
      "name": "getAttendanceCount",
      "outputs": [
        {
          "internalType": "uint256",
          "name": "",
          "type": "uint256"
        }
      ],
      "stateMutability": "view",
      "type": "function"
    },
    {
      "inputs": [
        {
          "internalType": "uint256",
          "name": "index",
          "type": "uint256"
        }
      ],
      "name": "getAttendanceRecord",
      "outputs": [
        {
          "internalType": "string",
          "name": "",
          "type": "string"
        },
        {
          "internalType": "string",
          "name": "",
          "type": "string"
        }
      ],
      "stateMutability": "view",
      "type": "function"
    },
    {
      "inputs": [
        {
          "internalType": "string",
          "name": "_name",
          "type": "string"
        },
        {
          "internalType": "string",
          "name": "_time",
          "type": "string"
        }
      ],
      "name": "markAttendance",
      "outputs": [],
      "stateMutability": "nonpayable",
      "type": "function"
    }
  ],
  "bytecode": "0x608060405234801561001057600080fd5b50610786806100206000396000f3fe608060405234801561001057600080fd5b506004361061004c5760003560e01c806318a14c75146100515780635763c1841461007b578063a26f80111461008e578063f4b89ff61461009f575b600080fd5b61006461005f36600461045b565b6100b4565b6040516100729291906104ba565b60405180910390f35b61006461008936600461045b565b61026b565b600054604051908152602001610072565b6100b26100ad36600461058b565b6103af565b005b600054606090819083106101045760405162461bcd60e51b8152602060048201526013602482015272496e646578206f7574206f6620626f756e647360681b604482015260640160405180910390fd5b6000808481548110610118576101186105ef565b906000526020600020906002020160405180604001604052908160008201805461014190610605565b80601f016020809104026020016040519081016040528092919081815260200182805461016d90610605565b80156101ba5780601f1061018f576101008083540402835291602001916101ba565b820191906000526020600020905b81548152906001019060200180831161019d57829003601f168201915b505050505081526020016001820180546101d390610605565b80601f01602080910402602001604051908101604052809291908181526020018280546101ff90610605565b801561024c5780601f106102215761010080835404028352916020019161024c565b820191906000526020600020905b81548152906001019060200180831161022f57829003601f168201915b5050505050815250509050806000015181602001519250925050915091565b6000818154811061027b57600080fd5b906000526020600020906002020160009150905080600001805461029e90610605565b80601f01602080910402602001604051908101604052809291908181526020018280546102ca90610605565b80156103175780601f106102ec57610100808354040283529160200191610317565b820191906000526020600020905b8154815290600101906020018083116102fa57829003601f168201915b50505050509080600101805461032c90610605565b80601f016020809104026020016040519081016040528092919081815260200182805461035890610605565b80156103a55780601f1061037a576101008083540402835291602001916103a5565b820191906000526020600020905b81548152906001019060200180831161038857829003601f168201915b5050505050905082565b604080518082019091528281526020810182905260008054600181018255908052815160029091027f290decd9548b62a8d60345a988386fc84ba6bc95484008f6362f93160ef3e563019081906104069082610690565b506020820151600182019061041b9082610690565b5050507fb0ea27b3491a619729895f50def28eee7c732bb7cd4be5869cba544faadf3ccd828260405161044f9291906104ba565b60405180910390a15050565b60006020828403121561046d57600080fd5b5035919050565b6000815180845260005b8181101561049a5760208185018101518683018201520161047e565b506000602082860101526020601f19601f83011685010191505092915050565b6040815260006104cd6040830185610474565b82810360208401526104df8185610474565b95945050505050565b634e487b7160e01b600052604160045260246000fd5b600082601f83011261050f57600080fd5b813567ffffffffffffffff8082111561052a5761052a6104e8565b604051601f8301601f19908116603f01168101908282118183101715610552576105526104e8565b8160405283815286602085880101111561056b57600080fd5b836020870160208301376000602085830101528094505050505092915050565b6000806040838503121561059e57600080fd5b823567ffffffffffffffff808211156105b657600080fd5b6105c2868387016104fe565b935060208501359150808211156105d857600080fd5b506105e5858286016104fe565b9150509250929050565b634e487b7160e01b600052603260045260246000fd5b600181811c9082168061061957607f821691505b60208210810361063957634e487b7160e01b600052602260045260246000fd5b50919050565b601f82111561068b576000816000526020600020601f850160051c810160208610156106685750805b601f850160051c820191505b8181101561068757828155600101610674565b5050505b505050565b815167ffffffffffffffff8111156106aa576106aa6104e8565b6106be816106b88454610605565b8461063f565b602080601f8311600181146106f357600084156106db5750858301515b600019600386901b1c1916600185901b178555610687565b600085815260208120601f198616915b8281101561072257888601518255948401946001909101908401610703565b50858210156107405787850151600019600388901b60f8161c191681555b5050505050600190811b0190555056fea2646970667358221220b892b340053cc2e9b2eebf2f6b8f5cbb99b1c79188258af5c3f0e8497144b5da64736f6c63430008180033",
  "linkReferences": {},
  "deployedLinkReferences": {}
}